:020000040800F2
:1000000000C80020310300080D6D0008A757000844
:100010008D6A00087D12000865A400080000000039
:100020000000000000000000000000007102000855
:10003000EB1D000800000000CD020008A19A000896
:100040004B0300084B0300084B0300084B03000858
:100050004B0300084B030008ED1D00084B0300088C
:100060004B030008F71D0008011E00084B030008A1
:100070004B0300084B0300084B0300084B03000828
:100080004B0300084B0300084B0300084B03000818
:10009000811200084B0300084B0300080B1E0008E8
:1000A0004B0300084B0300084B0300084B030008F8
:1000B0004B0300084B0300084B0300084B030008E8
:1000C0004B0300084B0300084B0300084B030008D8
:1000D0004B03000815A300084B03000825A30008E4
:1000E0004B0300084B0300084B0300084B030008B8
:1000F0004B0300084B0300084B0300084B030008A8
:100100004B0300084B0300084B0300084B03000897
:100110004B0300084B0300084B0300084B03000887
:100120004B03000839140008491400084B03000869
:100130004B0300084B0300084B0300084B03000867
:10014000911200084B0300084B0300084B03000802
:100150004B030008E11C0008F11C000855A400082E
:100160004B0300084B0300084B0300084B03000837
:100170004B0300084B0300084B030008000000007D
:100180004B0300084B03000800F002F800F060F891
:100190000AA090E8000C82448344AAF10107DA45E2
:1001A00001D100F055F8AFF2090EBAE80F0013F0D4
:1001B000010F18BFFB1A43F00103184784320100F6
:1001C000A432010010F8013B0A4413F0030408BFF5
:1001D00010F8014B1D1108BF10F8015B641E05D01B
:1001E00010F8016B641E01F8016BF9D1002D15D0D8
:1001F00010F8014B03F00C030C2BA1EB04040ABF15
:1002000010F8013BA4EB8314A4EB032405F10103D4
:1002100014F8016B5B1E01F8016BF9D5914238BFF0
:1002200010F8013BD1D3704700230024002500269D
:10023000103A28BF78C1FBD8520728BF30C148BF49
:100240000B6070471FB512F0CBFA1FBD10B510BD83
:1002500000F02FFB1146FFF7F5FF0DF097FC00F0C3
:100260004DFB03B4FFF7F2FF03BC00F05DFB0000A1
:100270002C4B19680868B0E8F04F80F30988BFF389
:100280006F8F4FF0000080F311887047000000006E
:1002900008480068006880F308884FF0000080F389
:1002A000148862B661B6BFF34F8FBFF36F8F00DF64
:1002B00000BF00BF08ED00E0DFF80C00016841F46A
:1002C00070010160704700BF88ED00E0EFF3098026
:1002D000BFF36F8F134B1A681EF0100F08BF20ED8D
:1002E000108A20E9F04F106009B44FF0500080F3FD
:1002F0001188BFF34F8FBFF36F8F10F03DF94FF0B0
:10030000000080F3118809BC19680868B0E8F04F54
:100310001EF0100F08BFB0EC108A80F30988BFF3FD
:100320006F8F7047F8060020EFF3058070470000DC
:100330000948804709480047FEE7FEE7FEE7FEE779
:10034000FEE7FEE7FEE7FEE7FEE7FEE704480549B5
:10035000054A064B70470000699B000889010008A8
:100360000088002000C8002000A8002000A800206D
:100370009FED1A1AF5EE000A40EE010ABDEEE00A02
:10038000F5EEC00A10EE100AF1EE10FA38BF401E6A
:1003900000EE100A1349F7EE001AB8EEC00A30EE6C
:1003A000C00ADFED0F0A20EE200AFCEEC00A10EEB4
:1003B000900AC0F3080000EE900A01EB8000F8EE0E
:1003C000600A90ED011A70EE600A90ED000A71EE7D
:1003D000E01A21EE800A00EE810A704783F9223E7E
:1003E00000000044342B0108DFED190AB5EEC00A05
:1003F00060EE200ABDEEE01A11EE100AF1EE10FADE
:1004000038BF401E00EE100A1349F7EE001AB8EE8E
:10041000C00A30EEC00ADFED0F0A60EE200ABCEE23
:10042000E00A10EE100AC0F3080000EE100A01EB1B
:100430008000B8EE400A90ED011A70EEC00A90ED0F
:10044000000A71EEE01A21EE800A00EE810A704780
:1004500083F9223E00000044342B01082DE9F04FBF
:1004600082B0466853680193058847884B8800200E
:1004700000900888874201BFB2F800C065455288E5
:1004800093421EBF6FF0020002B0BDE8F08F9FEDF7
:10049000412A4FEA970EC7F3400B00BFDDE9000287
:1004A00002EB800A4A6898464FF00009B0EE420A13
:1004B000B4465FEA0E0025D092ED001ADCED001A7A
:1004C00002EB8302DCED010A01EE810A92ED001AD3
:1004D00002EB8302401ED2ED001A02EB830200EE13
:1004E000810A9CED021ADCED030A00040CF1100CE9
:1004F000000C01EE210A92ED001A02EB830200EEDD
:10050000810AD9D117F0030026D0ACF10404A2EB84
:10051000830210F0010F08D002EB8302D4ED010A30
:1005200092ED001A241D00EE810A5FEA0B0013D041
:1005300002EB830CD4ED010A9CED001A02EBC3021E
:10054000401E00EE810AD4ED020A92ED001A04F179
:10055000080400EE810AEBD109F10100AAEC010ABE
:100560001FFA80F9486800EB8902A8F101001FFA20
:1005700080F8B8F1000F99D1009806EB870618446F
:1005800080B20090681E05042D0C87D102B00020B7
:10059000BDE8F08F0000000053EA020C00F0698013
:1005A0002DE9F04B4FF00006002B1FBFB3FA83F587
:1005B00003FA05F424FA05F65E4012BF1643B2FAB8
:1005C00082F502FA05F4C5F120051EBF22FA05FCEA
:1005D00044EA0C04203556EA044C4FEA144418BF90
:1005E000641C4FF000084FF00009904271EB030CBF
:1005F00039D3002919BFB1FA81F701FA07F6B0FA29
:1006000080F700FA07F6C7F120071EBF20FA07FCA3
:1006100046EA0C062037B6FBF4FCA7EB0507103FB3
:1006200007F01F0BCBF120060CFA0BFB2CFA06F699
:1006300044BFB3460026202FA4BF5E464FF0000BF8
:100640005BEA060C08BF4FF0010B19EB0B09ABFB83
:10065000027C48EB0608C01B06FB02CC0BFB03CC5C
:1006600071EB0C01C1E70B46024641464846BDE826
:10067000F08B13B54FF000004FF00001AFF3008096
:10068000BDE81C40704710B5431C02E010F8011B88
:1006900071B18107FAD14FF0013202C88C1A8C4334
:1006A00014EAC211F9D0C01A0A0603D0C01E10BD48
:1006B000C01A10BD0A0401D0801E10BD0902FCD072
:1006C000401E10BD032A40F2308010F0030C00F0F1
:1006D000158011F8013BBCF1020F624498BF11F87C
:1006E00001CB00F8013B38BF11F8013BA2F1040235
:1006F00098BF00F801CB38BF00F8013B11F00303AD
:1007000000F02580083AC0F0088051F8043B083A10
:1007100051F804CBA0E80810F5E7121D5CBF51F8B2
:10072000043B40F8043BAFF30080D20724BF11F82C
:10073000013B11F801CB48BF11F8012B24BF00F891
:10074000013B00F801CB48BF00F8012B704710B502
:10075000203AC0F00B80B1E81850203AA0E81850B9
:10076000B1E81850A0E81850BFF4F5AF5FEA027C7A
:1007700024BFB1E81850A0E8185044BF18C918C0E9
:10078000BDE810405FEA827C24BF51F8043B40F88A
:10079000043B08BF7047D20728BF31F8023B48BF6F
:1007A00011F8012B28BF20F8023B48BF00F8012BAD
:1007B000704702F0FF0343EA032242EA024200F0DC
:1007C00002B84FF000020429C0F0128010F0030CB0
:1007D00000F01B80CCF1040CBCF1020F18BF00F834
:1007E000012BA8BF20F8022BA1EB0C0100F00DB8E3
:1007F0005FEAC17C24BF00F8012B00F8012B48BF41
:1008000000F8012B70474FF0000200B513469446E4
:100810009646203922BFA0E80C50A0E80C50B1F158
:100820002001BFF4F7AF090728BFA0E80C5048BF6C
:100830000CC05DF804EB890028BF40F8042B08BF0A
:10084000704748BF20F8022B11F0804F18BF00F806
:10085000012B704770477047704710B500F00CF8D7
:10086000006810BD10B5044600F006F8046010BD25
:1008700000487047A087002000487047A0870020EC
:100880001FB584B000200A9C06AB04AA02A90094FC
:10089000AFF3008018B1DDE9020108B010BD0348D4
:1008A000204000F039F800200146F6E70000207CE7
:1008B00070477546FFF7DCFFAE46050069465346B4
:1008C00020F00700854618B020B5FFF73FFDBDE8D2
:1008D00020404FF000064FF000074FF000084FF0A7
:1008E000000B21F00701AC46ACE8C009ACE8C00938
:1008F000ACE8C009ACE8C0098D46704710B50446A5
:10090000AFF300802046BDE81040FFF7AABC0028E6
:1009100001D000F009B8704710B500F025F8BDE827
:100920001040FFF7F4BF000001491820ABBEFEE7FE
:100930002600020070B505460C460A2000E06D1C3A
:1009400000F068F835B128780028F8D102E0641C7E
:1009500000F060F814B120780028F8D1BDE87040AC
:100960000A2000F057B8000010B5022803D041015A
:1009700003D50DA112E0002010BD010101D50FA18A
:100980000CE0C10001D511A108E0810001D512A140
:1009900004E0400001D513A100E0002115A0FFF7FD
:1009A000C9FF012010BD0000496E76616C696420AA
:1009B0004F7065726174696F6E00000044697669FA
:1009C0006465204279205A65726F00004F76657227
:1009D000666C6F7700000000556E646572666C6F20
:1009E00077000000496E6578616374205265737505
:1009F0006C7400005349474650453A20417269746F
:100A0000686D6574696320657863657074696F6E7D
:100A10003A20000008B569468DF800000320ABBEFF
:100A200008BD10B52DED028BB0EE408AB0EE480A3D
:100A300009F08EFFBDEC028B10BD10B52DED028BC1
:100A4000B0EE408AF0EE608AF0EE680AB0EE480A36
:100A50000AF082F9BDEC028B10BD10B52DED028BB2
:100A6000B0EE408AB0EE480AFFF782FCBDEC028B84
:100A700010BDF0EE400AF5EEC00AF1EE10FA02DD0C
:100A8000B0EE600A7047B1EE600AFBE718B19FED67
:100A9000020A80ED000A70470000000018B1B3EEB2
:100AA000060A80ED000A704770B52DED0C8B84B0FE
:100AB00006460C4615469FED990AF0EE408A9FEDDA
:100AC000970AB0EE409A9FED950AF0EE40BA9FED7E
:100AD000930AF0EE409A9FED910AB0EE40AA0EB153
:100AE00004B11DB904B0BDEC0C8B70BD8C48FFF790
:100AF000CDFF8C48FFF7D2FF8A48D0ED000A9FED6A
:100B00008A1A60EE810AB0EE600A00F02DF9F0EE6C
:100B1000408A28EEA80AF0EE408A8248D0ED000A0A
:100B2000B0EE001A60EE810A9FED7F1A60EE810A36
:100B3000B0EE600A00F018F9B0EE409A29EE090A0A
:100B4000B0EE409ADFED790AB7EE000A00EEA80A8F
:100B5000DFED770A00EEC90ADFED760A20EE200A03
:100B6000754880ED000A6E4890ED000ADFED730ACB
:100B700080EE201AB7EE000A31EE000A20EE000ADD
:100B80006D48D0ED000A80EE801A6D4880ED001AA5
:100B900094ED000AB5EEC00AF1EE10FA0DD194ED15
:100BA000010AB5EEC00AF1EE10FA06D194ED020A80
:100BB000B5EEC00AF1EE10FA46D09FED580AB0EE3D
:100BC000408A0020019002900390D4ED000A60EE6C
:100BD000A00A94ED011AD4ED011A41EE210A94ED18
:100BE000021AD4ED021A41EE210AB0EE600A00F0BA
:100BF000A9F8B0EE408A94ED000A20EE080A8DEDC7
:100C0000010A94ED010A20EE080A8DED020A94ED26
:100C1000020A20EE080A8DED030ADDED010AF1EE6D
:100C2000600AB0EE600AFFF7FCFEF0EE409A9DED20
:100C3000031AF0EE410A9DED021AB0EE410AFFF7E9
:100C4000FCFEB0EE40AA07E09FED340AF0EE409AB9
:100C50009FED320AB0EE40AA95ED000AB5EEC00A4B
:100C6000F1EE10FA0DD195ED010AB5EEC00AF1EEE4
:100C700010FA06D195ED020AB5EEC00AF1EE10FAAF
:100C80003CD0B0EE690A00F06FF8B0EE408AB0EEEA
:100C9000690AFFF7E2FEB0EE40DAB0EE4A0A00F071
:100CA00063F8F0EE40AAB0EE4A0AFFF7D6FEB0EEC7
:100CB00040BA28EE2A0AD5ED010A20EE200AD5ED29
:100CC000000A0DEE200A68EE0B0A95ED021A00EEFE
:100CD000810AB0EE40CA95ED010A20EE0B0AD5ED6F
:100CE000020A0AEEE00AF0EE40CAF0EE6C0AB0EE3C
:100CF0004C0AFFF7A2FEF0EE40BA03E09FED070AB0
:100D0000F0EE40BAB0EE4A1AF0EE690AB0EE6B0AA5
:100D100030460AF079FC00BFE4E600000000000065
:100D2000740700207807002035FA8E3CC1BFAD3B28
:100D30009DF8C5362F7C1C417C070020506CC24AB0
:100D40008007002010B52DED028BB0EE408AB0EE8A
:100D5000480A0AF09EF9B7EE001AC1EE000AB0EE9A
:100D6000600ABDEC028B10BD10B52DED028BB0EE0C
:100D7000408AB0EE480AFFF737FBBDEC028B10BD8E
:100D80002DE9F0412DED028B9AB00546B0EE408A78
:100D90000E46174698460020179018901990149008
:100DA000159016904DB146B13FB1B8F1000F04D087
:100DB000B5EEC08AF1EE10FA05D100201AB0BDECF4
:100DC000028BBDE8F08196ED000A8DED170A96EDD5
:100DD000010A8DED180A96ED020A8DED190A97EDBC
:100DE000000A8DED140A97ED010A8DED150A97EDB5
:100DF000020A8DED160A17AA14A928460AF056FA17
:100E0000402104A8FFF7FFFC002000900190029011
:100E10000390002417A904A80FF0C8F800BF30E021
:100E200004A800EB041090ED000AD5ED000A20EEB6
:100E3000200A04A800EB0410D0ED010A95ED011A78
:100E400000EE810A04A800EB0410D0ED020A95ED33
:100E5000021A00EE810A04A800EB0410D0ED030A88
:100E600095ED031A00EE810A20EE080AF0EE000A62
:100E700080EE201A684600EB840080ED001A601CAA
:100E8000C4B2042CCCDB002410E005EB840090ED10
:100E9000000A684600EB8400D0ED000A30EE200A1C
:100EA00005EB840080ED000A601CC4B2042CECDB6E
:100EB00028460EF0DFFC012080E7000010B501227B
:100EC0001021024802F0F2FA10BD000000000240BA
:100ED00010B500221021024802F0E8FA10BD00000F
:100EE000000002407047000010B501221146024880
:100EF00002F0DCFA10BD00000004024010B5002230
:100F00000121024802F0D2FA10BD000000040240A4
:100F100010B543781B021BB20478234300EE103A4D
:100F2000B8EEC01A1C4BD3ED001A21EE211A81ED48
:100F3000001AC3781B021BB28478234300EE103AD8
:100F4000B8EEC01A144BD3ED001A21EE211A81ED30
:100F5000011A43791B021BB20479234300EE103AB5
:100F6000B8EEC01A0C4BD3ED001A21EE211A81ED18
:100F7000021A037A1B04C47943EA042384792343C5
:100F800000EE903AB8EE601ADFED041A21EE211A55
:100F900082ED001A10BD0000C006002000401C4277
:100FA000704710B5044620460DF074FA10BD10B518
:100FB000044620460BF046F910BD000042781202AC
:100FC00012B203781A4300EE102AF8EEC00A144A4F
:100FD00092ED001A60EE810AC1ED000AC278120299
:100FE00012B283781A4300EE102AF8EEC00A0C4AB7
:100FF00092ED001A60EE810AC1ED010A42791202F7
:1010000012B203791A4300EE102AF8EEC00A044A1D
:1010100092ED001A60EE810AC1ED020A70470000ED
:10102000C406002010B50024FFF75CFFFFF7B8FFEF
:101030000AF098FC10B144F0800402E00AF0F8FBDA
:1010400004430AF087FE10B144F0400402E00AF0C5
:1010500007FE0443204610BD2DE9FC4105460E461F
:101060001746002000900190FFF732FF922000F019
:10107000D1F806226946122000F0ACF8FFF71EFFF7
:101080009DF80100000200B29DF8001040EA010442
:1010900000EE104AB8EEC00A4C48D0ED000A20EE2F
:1010A000200A86ED000A9DF80300000200B29DF8B8
:1010B000021040EA010400EE104AB8EEC00A4348AC
:1010C000D0ED000A20EE200A86ED010A9DF8050009
:1010D000000200B29DF8041040EA010400EE104A3C
:1010E000B8EEC00A3948D0ED000A20EE200A86ED9D
:1010F000020AFFF703FF08226946002000F06AF8A1
:10110000FFF7F2FE9DF800000F2838D19DF803008C
:10111000000200B29DF8021040EA010400EE104AFD
:10112000B8EEC00A2A48D0ED000A20EE200A85ED6C
:10113000000A9DF80500000200B29DF8041040EA84
:10114000010400EE104AB8EEC00A2148D0ED000AB2
:1011500020EE200A85ED010A9DF80700000200B28A
:101160009DF8061040EA010400EE104AB8EEC00AED
:101170001748D0ED000A20EE200A85ED020AFFF79D
:10118000A7FEA22000F046F802226946222000F0C5
:1011900021F8FFF793FE9DF80000C0009DF80110B4
:1011A00040EA6114B4F5806F02DBA4F5006004B27C
:1011B00000EE104AF8EEC00AB4EE001AB3EE070AC9
:1011C00000EE810A87ED000ABDE8FC81C006002020
:1011D000C406002070B506460C46154646F0800051
:1011E00000F018F806E0552000F014F82070641C98
:1011F000681EC5B2002DF6D170BD70B504460D460F
:1012000044F0800000F006F8552000F003F8287044
:1012100070BD000001B582B04FF47A70012301AABD
:1012200002A90090024803F031FB9DF804000EBDB6
:10123000F00E002010B502461378DB00547843EA24
:101240006410B0F5806F02DBA0F5006318B200EE09
:10125000100AF8EEC00AB4EE001AB3EE070A00EE68
:10126000810A81ED000A10BD70B505460C4628467E
:10127000FFF7D0FF2046FFF7CDFF70BD00BFFEE7B0
:1012800010B5024800F0A6FF10BD00002C0E002093
:1012900010B5024800F09EFF10BD0000540E002063
:1012A000F0B587B006460C4617461D46019400204F
:1012B00002900390049005950E48006820F001000C
:1012C0000C49086000BF0C4800F075FF0028FAD0F8
:1012D00002233A4601A9304600F0AFFD00BF07489F
:1012E00000780128FBD1002004490870012007B0D4
:1012F000F0BD0000086400402C0E002034050020E2
:101300002DE9F0472DED068B82B082460C46B0EEFB
:1013100040AAB0EE608AF0EE418AB0EE619AF0EE3B
:10132000429A1020B2EE091AFAEE090AB0EE4A0A01
:101330000BF022F885B20C209FED301ADFED300A59
:10134000B0EE480A0BF018F886B20C209FED2D1A6B
:10135000DFED2D0AB0EE680A0BF00EF887B20C2014
:10136000B1EE041ADFED280AB0EE490A0BF004F8DA
:101370001FFA80F80C20B3EE021AFBEE020AB0EE60
:10138000690A0AF0F9FF1FFA80F92048046000207A
:101390001E498860C8600820086128121C4908702E
:1013A0004D70C6F3071088703007000E40EA272002
:1013B000C8700F71C8F3071048714FEA0870000E2B
:1013C00040EA2920887181F8079000BF114800F099
:1013D000F2FE0028FAD001AB0D4A0C490D4800F08E
:1013E0002CFD00BF0C4800780128FBD100200A49E1
:1013F000087002B0BDEC068BBDE8F08700003442F7
:10140000000034C20000FA4300000000C01A0020AF
:101410002C0500202C0E00203405002010B50446B9
:101420000823034A21460348FFF73AFF10BD000096
:10143000360500202C0E002010B5024801F012FDE8
:1014400010BD00006C12002010B5FE48C06C006892
:10145000FD49884276D9FC4854380068F949C96C7E
:101460000968FA4A914201D1202169E0F549C96C25
:101470000968F54A483A914201D1202160E0F149DA
:10148000C96C0968F14A6032914201D1202157E0CC
:10149000EC49C96C0968EC4A1832914201D120210B
:1014A0004EE0E849C96C0968E84A1832914201D116
:1014B000C91445E0E349C96C0968E34A303A9142EE
:1014C00001D1C9143CE0DF49C96C0968DF4A7832B0
:1014D000914201D1C91433E0DA49C96C0968DA4A8A
:1014E0003032914201D1C9142AE0D649C96C096849
:1014F000D64A3032914202D14FF4001120E0D14956
:10150000C96C0968D04A183A914202D14FF40011CF
:1015100016E0CC49C96C0968CC4A9032914202D19C
:101520004FF400110CE0C749C96C0968C64A48323B
:10153000914203D14FF4001102E003E04FF000614B
:10154000084070E1BF48C06C0068C049A8318842BB
:1015500076D9BD4858380068BA49C96C0968BB4A91
:10156000914201D1202169E0B649C96C0968B64AA7
:10157000483A914201D1202160E0B249C96C096822
:10158000B24A6032914201D1202157E0AD49C96C85
:101590000968AD4A1832914201D120214EE0A94993
:1015A000C96C0968A94A1832914201D1C91445E0B1
:1015B000A449C96C0968A44A303A914201D1C914BE
:1015C0003CE0A049C96C0968A04A7832914201D137
:1015D000C91433E09B49C96C09689B4A3032914277
:1015E00001D1C9142AE09749C96C0968974A303279
:1015F000914202D14FF4001120E09249C96C096870
:10160000914A183A914202D14FF4001116E08D49E7
:10161000C96C09688D4A9032914202D14FF4001191
:101620000CE08849C96C0968874A4832914203D165
:101630004FF4001102E003E04FF000610840F2E0D7
:101640008048C06C006881494831884276D97F481B
:10165000103840687B49C96C09687C4A914201D1C5
:10166000202169E07749C96C0968774A483A914274
:1016700001D1202160E07349C96C0968734A603266
:10168000914201D1202157E06E49C96C09686E4A28
:101690001832914201D120214EE06A49C96C096893
:1016A0006A4A1832914201D1C91445E06549C96CB2
:1016B0000968654A303A914201D1C9143CE0614958
:1016C000C96C0968614A7832914201D1C91433E08A
:1016D0005C49C96C09685C4A3032914201D1C91435
:1016E0002AE05849C96C0968584A3032914202D1FF
:1016F0004FF4001120E05349C96C0968524A183A66
:10170000914202D14FF4001116E04E49C96C0968AC
:101710004E4A9032914202D14FF400110CE04949F7
:10172000C96C0968484A4832914203D14FF400110C
:1017300002E003E04FF00061084074E043481038D5
:1017400000684049C96C0968404A914201D1202192
:1017500068E03C49C96C09683B4A483A914201D16A
:1017600020215FE03749C96C0968384A60329142EC
:1017700001D1202156E03349C96C0968324A183238
:10178000914201D120214DE02E49C96C09682F4AB0
:101790001832914201D1C91444E02A49C96C096840
:1017A000294A303A914201D1C9143BE02549C96C1C
:1017B0000968264A7832914201D1C91432E02149A0
:1017C000C96C0968204A3032914201D1C91429E01C
:1017D0001C49C96C09681D4A3032914202D14FF44C
:1017E00000111FE01749C96C0968174A183A91425D
:1017F00002D14FF4001115E01249C96C0968134A6F
:101800009032914202D14FF400110BE00D49C96CA6
:1018100009680D4A4832914202D14FF4001101E0AB
:101820004FF00061084000286FD00648C06C006887
:10183000054988427BD90348C06C00680349884247
:1018400008D105E0F00E002058640240106002400C
:10185000202068E0FE48C06C0068FE49884201D143
:10186000202060E0FA48C06C0068FB49884201D142
:10187000202058E0F648C06C0068F6496031884284
:1018800001D120204FE0F248C06C0068F24948398D
:10189000884201D1C01446E0ED48C06C0068ED49B3
:1018A0001831884201D1C0143DE0E948C06C00689D
:1018B000E9491831884201D1C01434E0E448C06CD1
:1018C0000068E4497831884201D1C0142BE0E04837
:1018D000C06C0068E0493039884202D14FF40010F2
:1018E00021E0DB48C06C0068DA493031884202D11F
:1018F0004FF4001017E0D648C06C0068D64930316C
:10190000884204D14FF400100DE0DFE10FE0D04831
:10191000C06C0068CF499031884202D14FF400106A
:1019200001E04FF00060CB49091F08606AE1C84838
:10193000C06C0068C8494831884274D9C448C06C3A
:101940000068C5496039884201D1202066E0C0485E
:10195000C06C0068BF49884201D120205EE0BC48CD
:10196000C06C0068BC49884201D1202056E0B848CC
:10197000C06C0068B7496031884201D120204DE039
:10198000B348C06C0068B4494839884201D1C014DA
:1019900044E0AF48C06C0068AE491831884201D1BC
:1019A000C0143BE0AA48C06C0068AB4918318842BB
:1019B00001D1C01432E0A648C06C0068A549783156
:1019C000884201D1C01429E0A148C06C0068A24936
:1019D0003039884202D14FF400101FE09C48C06C9F
:1019E00000689C493031884202D14FF4001015E064
:1019F0009748C06C006898493031884202D14FF452
:101A000000100BE09248C06C006892499031884207
:101A100002D14FF4001001E04FF000608D49083909
:101A20000860EFE0FFE78A48C06C00688A4918390F
:101A3000884274D98648C06C0068874960398842FA
:101A400001D1202066E08248C06C0068814988424C
:101A500001D120205EE07E48C06C00687E4988424B
:101A600001D1202056E07A48C06C00687949603185
:101A7000884201D120204DE07548C06C006876494D
:101A80004839884201D1C01444E07148C06C0068F4
:101A900070491831884201D1C0143BE06C48C06CD9
:101AA00000686D491831884201D1C01432E068489D
:101AB000C06C006867497831884201D1C01429E0C0
:101AC0006348C06C006864493039884202D14FF4E1
:101AD00000101FE05E48C06C00685E4930318842EB
:101AE00002D14FF4001015E05948C06C00685A4903
:101AF0003031884202D14FF400100BE05448C06CE2
:101B0000006854499031884202D14FF4001001E03E
:101B10004FF0006050497039C86073E0FFE74C48EF
:101B2000C06C00684C496039884201D1202066E0D1
:101B30004748C06C00684749884201D120205EE0D8
:101B40004348C06C00684449884201D1202056E0D7
:101B50003F48C06C00683F496031884201D1202075
:101B60004DE03B48C06C00683B494839884201D190
:101B7000C01444E03648C06C0068364918318842C9
:101B800001D1C0143BE03248C06C006832491831C2
:101B9000884201D1C01432E02D48C06C00682D4944
:101BA0007831884201D1C01429E02948C06C00680E
:101BB00029493039884202D14FF400101FE02448EF
:101BC000C06C006823493031884202D14FF40010C4
:101BD00015E01F48C06C00681F493031884202D1AF
:101BE0004FF400100BE01A48C06C0068194990319E
:101BF000884202D14FF4001001E04FF00060164916
:101C0000703988601548007800F0020078B11348F8
:101C1000007820F00200114908700846007840F072
:101C200004000870012211460D4801F03FFC0D48E8
:101C3000007800F00200E0B10A48007820F00200CD
:101C4000084908700846007840F0040008700BE06E
:101C5000F00E00201064024070600240D1050020A8
:101C600000040240D205002001221021184801F092
:101C70001DFC1848007800F0020078B11548007883
:101C800020F00200134908700846007840F0040074
:101C90000870012210210E4801F008FC0AF014FE21
:101CA0000D48007800F0040080B10B48007820F067
:101CB0000400094908700846007840F008000870E0
:101CC0000648006840F001000449086010BD0000AB
:101CD00000000240D3050020D1050020103C014047
:101CE00010B5024801F0BEF810BD0000CC12002073
:101CF00010B5024801F0B6F810BD0000AC1100208C
:101D000001680A4BCAB2103AA3FB02321209084B0F
:101D10009B5CC365032A04D96FF30901091D816522
:101D200002E06FF309018165806D7047ABAAAAAA32
:101D30001E2B0108014600208A6A8B69002B0FD0F8
:101D4000B3F5005F1DD08AB3012A30D0022A2ED00D
:101D5000032A04D1C96A11F0807F00D001207047A6
:101D60001AB1012A07D0022AF9D1C96A11F0807F7D
:101D7000F5D001207047C96AB1F1C07FFAD10120C6
:101D800070475AB1012A0BD0022A07D0032AF7D193
:101D9000C96AB1F1C07FF3D10120704701207047BB
:101DA000C96A11F0807FFAD001207047FFE7012057
:101DB000704710B4D0F800C0DCF8004024F4802450
:101DC000CCF80040D0F800C0CCF804308368402B39
:101DD00005D0036899600068C26010BC7047036852
:101DE0009A600068C16010BC7047704710B5012050
:101DF00001F038FA10BD10B5082001F033FA10BD1B
:101E000010B5102001F02EFA10BD10B5202001F001
:101E100029FA10BD704790F82020012A07D0022A25
:101E200005D0416A41F48021416201207047006879
:101E30004269114341610020704730B490F820405E
:101E4000D0F800C0DCF808C0012C08D0022C06D065
:101E5000416A41F48021416230BC012070470CF09E
:101E600080640CF000652C4302D11CF0805F50D0E0
:101E70004FF0020CC3F800C08B68A3B1D1F80CC0BE
:101E800043EA0C03D1F804C043EACC03D0F800C005
:101E9000CCF89031D0F800C00B69CCF89431097DB2
:101EA00001290AD010E0B1F800C0CB6843EA4C53D6
:101EB000D0F800C0CCF89031ECE70168D1F894314B
:101EC00043F48073C1F894311179D37992F805C045
:101ED00041EA036193791B0443EA0C231943036825
:101EE000C3F89C111178D37841EA03619378527852
:101EF0001B0443EA022211430268C2F898110068E9
:101F0000D0F8901141F00101C0F8901130BC0020D0
:101F10007047416A41F40011416230BC01207047B2
:101F200090F82020012A07D0022A05D0416A41F406
:101F300080214162012070474248D0F8002242F0DF
:101F40000102C0F80022D0F8002222F47C52C0F82E
:101F50000022D0F800224B6A42EA0322C0F8002295
:101F60000A7D012302F01F0203FA02F2D0F81C32AC
:101F70009343C0F81C32CB69D3B9D0F80C329343E9
:101F8000C0F80C32B1F80CC04B686CF31F43D1F8A9
:101F900014C000EBCC0CCCF84032B1F808C00B6890
:101FA0006CF31F43D1F814C000EBCC0CCCF84432D6
:101FB000CB69012B1AD1D0F80C321343C0F80C3284
:101FC000B1F800C04B686CF31F43D1F814C000EBAC
:101FD000CC0CCCF84032B1F808C0CB686CF31F438E
:101FE000D1F814C000EBCC0CCCF844328B697BB137
:101FF000D0F804321343C0F804320B6973B1D0F83F
:1020000014321343C0F81432096A01290CD010E0CD
:10201000D0F804329343C0F80432EEE7D0F814321B
:102020009343C0F81432EFE7D0F81C121143C0F804
:102030001C12D0F8001221F00101C0F8001200209B
:102040007047000000640040704710B490F820C052
:10205000BCF1010F09D0BCF1020F06D0416A41F476
:102060008021416210BC0120704739B1D0F800C016
:10207000DCF810C01CF0030F7DD006E0D0F800C0E3
:10208000DCF80CC01CF0030F7BD04FF4D87C046844
:102090000CEB011C54F80C4004F004049460002C78
:1020A0007DD0046854F80C40E4085460046854F887
:1020B0000CC00CF0020CC2F80CC04FF4DA7C0468BF
:1020C0000CEB011C54F80C4004F00F04146104687C
:1020D00054F80C40C4F307249461046854F80CC00D
:1020E0004FEA1C4CC2F814C04FF4DC72D0F800C0A8
:1020F00002EB01125CF802C083F800C0D0F800C007
:102100005CF802C04FEA1C2C83F801C0D0F800C074
:102110005CF802C04FEA1C4C83F802C0D0F800C043
:102120005CF80220120EDA704FF4DE72D0F800C0B4
:1021300002EB01125CF802C083F804C0D0F800C0C2
:102140005CF802C04FEA1C2C83F805C0D0F800C030
:102150005CF802C04FEA1C4C83F806C0D0F800C0FF
:102160005CF80220120EDA71F9B10068016941F0E1
:102170002001016102E00BE003E010E010BC002050
:102180007047416A41F40011416210BC0120704760
:10219000416A41F40011416210BC0120704704689B
:1021A00054F80C40640D146080E70068C16841F089
:1021B0002001C160DEE7002290F82010012901D043
:1021C000022905D10068806810F0006F00D001225C
:1021D000104670472DE9F05F0546002428684669DF
:1021E000D0F804908768D0F80CA0D0F810B0D0F8E0
:1021F000188016F0010F54D017F0010F17D00121ED
:10220000816017F0020F03D0284600F0C1FD0EE0F8
:1022100017F0040F02D04FF4006408E017F0080F25
:1022200002D04FF4805402E0284600F0B0FD17F4CD
:10223000807F19D029684FF48070886017F4007F80
:1022400003D0284600F0A6FD0EE017F4806F02D000
:1022500044F4005408E017F4006F02D044F48044C2
:1022600002E0284600F095FD17F4803F19D0296858
:102270004FF48030886017F4003F03D0284600F008
:102280008BFD0EE017F4802F02D044F4004408E0E8
:1022900017F4002F02D044F4803402E0284600F006
:1022A0007AFD16F0080F07D01AF0100F04D044F48E
:1022B000007429681020C86016F0040F4FF008075A
:1022C00007D01AF0080F04D02868C760284600F02D
:1022D000FFF916F0020F07D02868C06810F0030F4E
:1022E00002D0284600F0F6F916F0400F07D01BF098
:1022F000100F04D044F4806429681020086116F09F
:10230000200F07D01BF0080F04D02868076128466B
:1023100000F008FD16F0100F07D02868006910F0D3
:10232000030F02D0284600F0FEFC16F4003F08D050
:1023300019F0100F05D0296810204860284600F0D9
:10234000F3FC16F4803F07D019F0080F04D028687A
:102350004760284600F021FD16F4004F4AD019F0DE
:10236000040F44D016F4807F04D018F0010F01D080
:1023700044F0010416F4007F04D018F0020F01D0DD
:1023800044F0020416F4806F04D018F0040F01D05A
:1023900044F0040416F4006F29D018F0700F26D012
:1023A00008F07000402815D006DC102809D020283D
:1023B0000AD0302816D10AE050280ED0602811D15A
:1023C0000EE044F008040DE044F010040AE044F08C
:1023D000200407E044F0400404E044F0800401E0FD
:1023E00044F480742868816921F070018161296852
:1023F00004204860002C05D0686A204368622846A3
:10240000FFF722FEBDE8F09F70B50446002C03D014
:1024100094F8200010B104E0012070BD204600F0C7
:10242000A7F82068016841F00101016001F046F859
:102430000546206840684FF0050610F0010F11D1E5
:1024400001F03CF8401B0A2807D9606A40F40030CC
:10245000606284F82060012070BD2068406810F040
:10246000010FEDD02068016821F00201016001F048
:1024700025F805462068406810F0020F11D001F0E1
:102480001DF8401B0A2807D9606A40F400306062DA
:1024900084F82060012070BD2068406810F0020FB1
:1024A000EDD1207E01283FD02068016821F0800115
:1024B0000160607E01283DD02068016821F0400164
:1024C0000160A07E01283BD02068016821F0200136
:1024D0000160E07E012839D02068016841F01001D8
:1024E0000160207F012837D02068016821F00801B1
:1024F0000160607F012835D02068016821F0040167
:102500000160E168A06862690843216911430843DA
:102510006168491E08432168C8610020606201208B
:1025200084F82000002070BD2068016841F080011F
:102530000160BEE72068016841F040010160C0E72A
:102540002068016841F020010160C2E7206801684D
:1025500021F010010160C4E72068016841F0080122
:102560000160C6E72068016841F004010160C8E726
:1025700010B586B00446142101A8FEF744F94E496F
:102580002068884241D14D480068401C4B49086092
:102590000846006801280FD100BF0020009048487D
:1025A000006840F00070464908600846006800F086
:1025B0000070009000BF00BF00BF002000904048A6
:1025C0001038006840F008003D491039086008469E
:1025D000006800F00800009000BF00BF03200190D9
:1025E000022002900020039003200490092005900F
:1025F00001A9344800F042FE00220621142001F017
:1026000033FB142001F022FB54E02F49206888425C
:1026100050D100BF002000902948006840F0806041
:10262000274908600846006800F08060009000BFFD
:1026300000BF22480068401C204908600846006826
:1026400001280FD100BF002000901D48006840F015
:1026500000701B4908600846006800F00070009098
:1026600000BF00BF00BF0020009015481038006870
:1026700040F002001249103908600846006800F076
:102680000200009000BF00BF602001900220029075
:1026900000200390032004900920059001A90B4815
:1026A00000F0ECFD00220621402001F0DDFA402080
:1026B00001F0CCFA06B010BD006400401800002004
:1026C00040380240000C0240006800400004024014
:1026D0007047000010B58AB0044608AB01AA00217B
:1026E0002046FFF7B2FC9DF8200092287DD024DC24
:1026F00032287BD010DC042879D006DC01282CD0CD
:10270000022875D0032874D129E1192872D0302805
:1027100071D03128F7D109E281286DD006DC332849
:102720006BD034286AD08028EDD1DCE2882866D0CE
:10273000902865D09128E6D147E29438152858D2E0
:10274000DFE800F0FD5757575757FCFBFAF957578A
:10275000F8F7F6F5F4F3F2F1F0009DF822009DF899
:10276000211040EA012000EE100AB8EEC00AFA4833
:1027700080ED000A9DF8230000019DF8241040EA36
:10278000211000EE100AB8EEC00AF34880ED010AED
:102790009DF825009DF8241001F00F0140EA01206A
:1027A00000EE100AB8EEC00AEB4880ED020A0146BE
:1027B00091ED000ABDEEC00A10EE100A1021F2EEF3
:1027C000090ABAEE090A0DF0A3FBE34880ED030AFB
:1027D000014691ED010ABDEEC00A10EE100A0C216F
:1027E000DFEDDE0A9FEDDE0A0BE003E29FE129E167
:1027F00033E08FE2EAE198E177E2BDE1BDE173E227
:10280000CFE10DF085FBD44880ED040A014691ED3F
:10281000020ABDEEC00A10EE100A0C21F3EE020A05
:10282000BBEE020A0DF074FBCB4880ED050A9DF863
:10283000260000EE100AB8EE400AC74880ED060AEE
:102840009DF8270000EE100AB8EE400AC24880ED5D
:10285000070A0120C34908705DE29DF822009DF837
:10286000211040EA012000EE100AB8EEC00ABE486E
:1028700080ED000A9DF8230000019DF8241040EA35
:10288000211000EE100AB8EEC00AB74880ED010A28
:102890009DF825009DF8241001F00F0140EA012069
:1028A00000EE100AB8EEC00AAF4880ED020A0146F9
:1028B00091ED000ABDEEC00A10EE100A1021F2EEF2
:1028C000090ABAEE090A0DF023FBA74880ED030AB6
:1028D000014691ED010ABDEEC00A10EE100A0C216E
:1028E000DFED9E0A9FED9E0A0DF012FB9E4880EDE3
:1028F000040A014691ED020ABDEEC00A10EE100A6C
:102900000C21F3EE020ABBEE020A0DF001FB964821
:1029100080ED050A9DF8260000EE100AB8EE400A88
:1029200091480DE0ABE1A9E1A7E1A5E1A3E1A1E1B7
:102930009FE19DE1DAE1BCE199E184E182E16DE1B1
:1029400080ED060A9DF8270000EE100AB8EE400A56
:10295000854880ED070A012082490870DBE19DF877
:1029600022009DF8211040EA012000EE100AB8EE86
:10297000C00A7E4880ED000A9DF8230000019DF802
:10298000241040EA211000EE100AB8EEC00A774881
:1029900080ED010A9DF825009DF8241001F00F013B
:1029A00040EA012000EE100AB8EEC00A6F4880ED40
:1029B000020A014691ED000ABDEEC00A10EE100AAF
:1029C0001021F2EE090ABAEE090A0DF0A1FA6748E1
:1029D00080ED030A014691ED010ABDEEC00A10EE3A
:1029E000100A0C21DFED5D0A9FED5D0A0DF090FAF3
:1029F0005E4880ED040A014691ED020ABDEEC00A70
:102A000010EE100A0C21F3EE020ABBEE020A0DF0E2
:102A10007FFA564880ED050A9DF8260000EE100A60
:102A2000B8EE400A514880ED060A9DF8270000EEF6
:102A3000100AB8EE400A4D4880ED070A01204949C6
:102A4000087068E19DF822009DF8211040EA0120FD
:102A500000EE100AB8EEC00A454880ED000A9DF865
:102A6000230000019DF8241040EA211000EE100A16
:102A7000B8EEC00A3E4880ED010A9DF825009DF899
:102A8000241001F00F0140EA012000EE100AB8EE18
:102A9000C00A374880ED020A014691ED000ABDEEFA
:102AA000C00A10EE100A1021F2EE090ABAEE090A65
:102AB0000DF02EFA2E4880ED030A014691ED010A31
:102AC000BDEEC00A10EE100A0C21DFED240A9FEDC6
:102AD000240A0DF01DFA264880ED040A014691ED06
:102AE000020ABDEEC00A10EE100A0C21F3EE020A33
:102AF000BBEE020A0DF00CFA1D4880ED050A9DF8A8
:102B0000260000EE100AB8EE400A194880ED060AC9
:102B10009DF8270000EE100AB8EE400A144880ED38
:102B2000070A01200F490870F5E000BF00BF0198B7
:102B3000A0F2411010B101280BD104E008A90D4802
:102B400009F0F7FC05E008A90A48403009F0F1FC5B
:102B500000BF00BFDFE00000D81A002000003442B0
:102B6000000034C234050020F81A0020181B002091
:102B7000381B0020C819002000BF0198A0F24110A6
:102B800010B101280BD104E008A9644809F0B5FC94
:102B900005E008A96148403009F0AFFC00BF00BF64
:102BA000B9E00198A0F2411010B101280BD104E066
:102BB00008A95A4809F0ADFC05E008A9574840307B
:102BC00009F0A7FC00BF00BFA5E000BF0198A0F27C
:102BD000411010B101280BD104E008A94F4809F0B9
:102BE00006FD05E008A94D48403009F000FD00BF92
:102BF00000BF90E00198A0F2411010B101280BD164
:102C000004E008A9454809F0F8FC05E008A9434894
:102C1000403009F0F2FC00BF00BF7CE00198A0F258
:102C2000411010B101280BD104E008A93B4809F07C
:102C3000FEFC05E008A93948403009F0F8FC00BF67
:102C400000BF68E000BF0198A0F2411010B1012858
:102C50000BD104E008A9314809F022FC05E008A9DD
:102C60002E48403009F01CFC00BF00BF53E000BFFD
:102C700000BF00BF00BF00BF00BF00BF00BF019882
:102C8000A0F2411010B1012811D107E008A9234892
:102C900009F05CFC01202249087008E008A91F48DF
:102CA000403009F053FC01201D49087000BF00BFEF
:102CB00031E00198A0F2411010B1012811D107E0D4
:102CC00008A9164809F07CFC01201549087008E0A5
:102CD00008A91248403009F073FC0120104908701F
:102CE00000BF00BF17E000BF00BF14E00198A0F2D2
:102CF000411010B101280BD104E008A9074809F0E0
:102D0000E1FB05E008A90548403009F0DBFB00BF06
:102D100000BF00E000BF00BF0AB010BDC81900200E
:102D20003405002070477047704770B5044694F82A
:102D30002000012805D0606A40F400206062012074
:102D400070BD022084F820002068016821F0010194
:102D5000016000F0B3FB05462068406810F0010FE9
:102D600012D000F0ABFB401B0A2808D9606A40F47F
:102D700000306062052084F82000012070BD2068CA
:102D8000406810F0010FECD10020606270BD704708
:102D90007047704770477047704770472DE9F041A2
:102DA0000446A66D00F08AFB054694F8350000271E
:102DB000022806D08020606584F834700120BDE8C8
:102DC000F0812068016821F01601016020684169E6
:102DD00021F080014161206C08B9A06C20B120680D
:102DE000016821F0080101602068016821F00101FB
:102DF00001602068006810F0010F12D000F05EFB47
:102E0000401B052808D920206065032084F8350080
:102E100084F83470BDE8F0812068006810F0010F7C
:102E2000ECD194F85C003F2101FA00F0B060012081
:102E300084F8350084F834700020BDE8F08190F803
:102E40003510022903D080214165012070470521FA
:102E500080F835100068016821F001010160002050
:102E6000704700002DE9F84304464FF00008CDF804
:102E7000008076484FF416510068B0FBF1F7A56D5D
:102E80002E6894F85C00082101FA00F0304211D05D
:102E90002068026812F0040F0CD0026822F00402CD
:102EA000026094F85C0001FA00F0A860606D40F0E8
:102EB0000100606594F85C004FF0010909FA00F028
:102EC000304209D02168496911F0800F04D0A86010
:102ED000606D40F00200606594F85C10042088404A
:102EE000304209D02168096811F0020F04D0A860AF
:102EF000606D40F00400606594F85C10102088401C
:102F0000304224D02168096811F0080F1FD0A86052
:102F10002068016811F4802F0DD0006810F4002F94
:102F200004D0A16C99B12046884710E0216C71B1A2
:102F3000204688470BE0016811F4807F03D10168C7
:102F400021F008010160216C09B12046884794F8FE
:102F50005C1020208840304251D02168096811F06F
:102F6000100F4CD0A86094F8350005280DD02068CB
:102F7000016811F4802F32D0006810F4002F29D09E
:102F8000E16B59B32046884739E02068016821F099
:102F9000160101602068416921F080014161206CC7
:102FA00008B9A06C20B12068016821F00801016017
:102FB00094F85C003F2101FA00F0A86084F8359095
:102FC00084F83480216D00293ED001B02046BDE850
:102FD000F0430847616C09B1204688470FE001685B
:102FE00011F4807F07D1016821F01001016084F89D
:102FF000359084F83480E16B09B120468847606DD4
:10300000002821D0606D10F0010F15D0052084F844
:1030100035002068016821F0010101600098401C22
:103020000090B84204D82068006810F0010FF5D174
:1030300084F8359084F83480E16C002904D001B024
:103040002046BDE8F0430847BDE8F883B4040020FB
:103050002DE9F041044600F031FA0546DCB10220CA
:1030600084F83500002684F834602068016821F077
:10307000010101602068006810F0010F13D000F01A
:103080001DFA401B052809D920206065032084F81B
:103090003500BDE8F0810120BDE8F08120680068BE
:1030A00010F0010FEBD121680868234A1040A36893
:1030B0006268D4F810C01A43E36843EA0C031A4369
:1030C00063691A43A3691A43E3691A43236A1A43DB
:1030D0001043626A042A03D1236BE26A1A43104345
:1030E00008602068406920F00701606A40EA010535
:1030F000012704280ED1A06A0543E06A50B120469A
:10310000FEF718FE30B14020606584F8357001206C
:10311000BDE8F081206845612046FEF7F1FD94F896
:103120005C103F2202FA01F18160666584F8357017
:103130000020BDE8F08100003F8010F070B504462B
:103140000025A66D94F8340001280DD0012084F8E4
:10315000340094F835C00020BCF1010F06D084F88B
:1031600034000225284670BD022070BD4FF0020CCD
:1031700084F835C060652046FEF71BFE94F85C00BD
:103180003F2101FA00F0B0602068016841F01601AB
:103190000160206C20B12068016841F008010160E5
:1031A0002068016841F001010160DBE710B50446C9
:1031B000102C14D1052009F06DF82248007840F059
:1031C0000100204908702048007840F001001E49A5
:1031D00008701E480078A0B309F076FB31E0202C7F
:1031E0000ED1062009F056F81948007840F0010089
:1031F000174908701548007818B309F065FB20E0FE
:10320000082C09D1072009F045F81248007840F051
:1032100001001049087014E0012C12D10DF0A8FD36
:1032200001280ED00C490D4800680DF0BFF80A487F
:10323000006830B120070A490860BFF34F8FBFF321
:103240006F8F10BDD2050020D3050020D5050020CA
:10325000D1050020D405002058060020AC05002030
:1032600004ED00E010B504490A68024202D008608B
:10327000FFF79CFF10BD0000143C01402DE9F84F02
:103280000022DFF81492DFF814A2DFF814B24FF036
:10329000010E03274FF00F080EFA02FC0B6803EA39
:1032A0000C0363457DD10C7904F00304012C01D09B
:1032B000022C14D18568540007FA04F6B543CE6891
:1032C00006FA04F42C438460446824EA0C0C0C795C
:1032D000C4F30014944044EA0C0CC0F804C0D1F8C4
:1032E00004C037EA0C0C0CD0C4684FEA420C07FA51
:1032F0000CF5AC438D6805FA0CFC4CEA040CC0F8E4
:103300000CC091F804C00CF0030CBCF1020F12D1F8
:103310004FEAD20C00EB8C04256A4FEA427C4FEA5C
:10332000DC6C08FA0CF6B5430E6906FA0CFC4CEAA4
:10333000050CC4F820C004684FEA420C07FA0CF5EB
:10334000AC430D7905F0030505FA0CFC4CEA040CBE
:10335000C0F800C0D1F804C01CF4403F7DD0D9F8BB
:1033600000C04CF4804CC9F800C0D9F800C00CF47F
:10337000804CCDF800C022F0030C0CF1804505F51F
:103380009835D5F808C89407240F08FA04F62CEAF3
:103390000606A0F1804CBCF5003C64D0A0F1804C46
:1033A00000E05AE0BCF5013C60D0A0F1804CBCF5D7
:1033B000023C5ED0A0F1804CBCF5033C5CD0A0F197
:1033C000804CBCF5043C5AD0A0F1804CBCF5053CC7
:1033D00058D0A0F1804CBCF5063C56D0A0F1804CF2
:1033E000BCF5073C54D04FF0080C0CFA04FC4CEA36
:1033F000060CC5F808C8DAF800C02CEA030C4C68C3
:1034000014F4803F01D04CEA030CCAF800C0254CEC
:10341000D4F800C02CEA030C4D6815F4003F01D02D
:103420004CEA030CC4F800C0DBF800C02CEA030C23
:103430004C6814F4801F01D04CEA030CCBF800C098
:10344000194CD4F800C02CEA030C4D6815F4001F89
:1034500001D04CEA030CC4F800C0521C102AFFF43F
:103460001BAFBDE8F88F4FF0000CBEE74FF0010C2A
:10347000BBE74FF0020CB8E74FF0030CB5E74FF095
:10348000040CB2E74FF0050CAFE74FF0060CACE7C9
:103490004FF0070CA9E7000044380240003C01400F
:1034A000083C0140043C01400C3C0140002A01D092
:1034B000816170470904816170470000014880689C
:1034C00070470000EC06002070B50446002C04D0C4
:1034D00094F83D00002510B106E0012070BD84F88D
:1034E0003C50204600F0E0FA242084F83D0020689B
:1034F000016821F0010101602068016841F4004188
:1035000001602068016821F40041016000F074FD51
:10351000544B6168994203D85349884203D304E06D
:103520005249884201D2012070BD5149B0FBF1F1EE
:103530002268D2F804C02CF03F0C4CEA010CC2F80F
:1035400004C062689A4201D84A1C07E04FF49672A0
:1035500051434FF47A72B1FBF2F14A1C2168D1F861
:1035600020C02CF03F0C42EA0C020A6261689942CA
:1035700010D84900401EB0FBF1F2521CC2F30B02FE
:10358000042A01D2042026E0B0FBF1F0401CC0F375
:103590000B0020E0A268002A50D001EBC10303EB2E
:1035A0000113A0F1010CBCFBF3F35B1C43F480435B
:1035B0001B051B0D4AD0002A4AD001EBC10202EBC9
:1035C0000111401EB0FBF1F0401CC0F30B0040F4B1
:1035D000804040F400402168CA6922F0FF0222F4D2
:1035E0004F421043C861216AE069014320680268C4
:1035F00022F0C00211430160E168206901432068A4
:10360000826822F0FF0222F4034211438160A16923
:10361000606901432068C26822F0FF021143C16063
:103620002068016841F0010101602564202084F8D0
:103630003D00256384F83E50002070BD01EB41033E
:10364000A0F1010CBCFBF3F35B1CB1E70120C2E766
:1036500001EB4101401EB0FBF1F0401CC0F30B0038
:10366000B7E70000A086010080841E0000093D002D
:1036700040420F002DE9FF4F83B004468A4693462F
:10368000DDF84490DDF84080129EFFF717FF0546F5
:1036900094F83D00202803D007B00220BDE8F08F49
:1036A00019230122A0492046009502F0D7F918B14C
:1036B00007B00220BDE8F08F94F83C00012808D044
:1036C000012084F83C002068016811F0010F04D04B
:1036D00007E007B00220BDE8F08F016841F001016A
:1036E00001602068016821F400610160222084F8F3
:1036F0003D00402084F83E0000272764C4F8248061
:10370000A4F82A90608D20858848E0620195009693
:103710005A4651462046069B02F060F818B107B0A1
:103720000120BDE8F08F208D10B3012829D0022898
:1037300035D02068416980690290208D002800F012
:10374000E880DFF8EC81208D032800F2B7800128A3
:1037500034D002284AD03346002241462046009504
:1037600002F07CF900286CD007B00120BDE8F08F92
:103770002068416981690291016841F4007101602A
:10378000DBE72068016821F48061016020684169FD
:1037900081690291016841F400710160CDE7206800
:1037A000016821F4806101602068016841F40061D2
:1037B00001602068416980690290BEE72A4631466F
:1037C000204602F00CFA18B107B00120BDE8F08FD6
:1037D00020680069616A0870606A401C6062208D20
:1037E000401E2085608D401E60858EE0334600229D
:1037F00041462046009502F031F918B107B001208A
:10380000BDE8F08F2068016841F400710160206814
:103810000069616A0870606A401C6062218D491EFF
:103820002185618D491E6185216809690170606A81
:10383000401C6062208D401E2085608D401E60858A
:1038400063E02068016821F48061016020680069FC
:10385000616A0870606A401C6062208D401E20858D
:10386000608D401E6085334600224146204600950B
:1038700002F0F4F818B107B00120BDE8F08F20681D
:10388000016841F40071016020680069616A087094
:10389000606A401C6062218D491E2185618D491E30
:1038A0006185216809690170606A401C6062208D31
:1038B000401E2085608D401E608526E02A463146E8
:1038C000204602F08CF918B107B00120BDE8F08F56
:1038D00020680069616A0870606A401C6062218D1E
:1038E000491E2185618D491E61852268516911F04B
:1038F000040F0AD011690170606A401C6062208D5B
:10390000401E2085608D401E6085208D00287FF43C
:103910001AAF202084F83D0084F83E7084F83C7093
:1039200007B00020BDE8F08F020010000000FFFF8C
:10393000040001002DE9FF4F83B004468A469346F8
:10394000DDF84490DDF84080129EFFF7B7FD054694
:1039500094F83D00202803D007B00220BDE8F08F86
:10396000192301224E492046009502F077F818B13C
:1039700007B00220BDE8F08F94F83C00012808D081
:10398000012084F83C002068016811F0010F04D088
:1039900007E007B00220BDE8F08F016841F00101A7
:1039A00001602068016821F400610160212084F831
:1039B0003D00402084F83E0000272764C4F824809E
:1039C000A4F82A90608D20853648E0620195009623
:1039D0005A4651462046069B01F0AAFF18B107B08F
:1039E0000120BDE8F08F208D002836D02A463146D0
:1039F000204602F032F958B1206C042804D1206826
:103A0000016841F40071016007B00120BDE8F08F4A
:103A1000606A216800780861606A00F1010CC4F8EE
:103A200024C0208D401E80B22085618D491E618595
:103A30002368596911F0040F0CD058B19CF80000AC
:103A40001861606A401C6062208D401E2085608D78
:103A5000401E6085208D0028C8D12A463146204668
:103A600001F0CEFF58B1206C042804D12068016811
:103A700041F40071016007B00120BDE8F08F2068BB
:103A8000016841F400710160202084F83D0084F851
:103A90003E7084F83C7007B00020BDE8F08F000055
:103AA000020010000000FFFF10B586B0044614218C
:103AB00001A8FCF7A8FE2A49206888424DD100BF22
:103AC000002000902748006840F004002549086065
:103AD0000846006800F00400009000BF00BF00BF6F
:103AE000002000900846006840F001000860084689
:103AF000006800F00100009000BF00BF4815019071
:103B000012200290012003900320049004200590CD
:103B100001A91548FFF7B2FB4FF480700190122005
:103B2000029001200390032004900420059001A935
:103B30000E48FFF7A3FB00BF00200090094810309B
:103B4000006840F40000074910310860084600682A
:103B500000F40000009000BF00BF06B010BD0000E0
:103B6000005C004030380240000802400000024083
:103B7000024881680278114481607047EC06002099
:103B800010B50B48016841F400710160016841F40F
:103B900080610160016841F480710160032000F0E0
:103BA00097F80F2000F006F800F026F8002010BD6E
:103BB000003C024070B504460D4D4FF47A712878F0
:103BC000B1FBF0F00B490968B1FBF0F000F05AFFCF
:103BD00008B1012070BD102C07D200222146501ED2
:103BE00000F042F86C60002070BD012070BD000044
:103BF000EC060020B404002008B500BF00200090AF
:103C00001148006840F480400F4908600846006889
:103C100000F48040009000BF00BF00BF0020009073
:103C2000081F006840F08050091F086008460068BF
:103C300000F08050009000BF00BF00220F21901EB6
:103C400000F012F808BD00004438024000280ADBEA
:103C500000F01F01012202FA01F14009800000F189
:103C6000E020C0F80011704710B4184B1B68C3F374
:103C70000223C3F1070CBCF1040F01D94FF0040C6F
:103C80001C1D072C01D2002300E0DB1E012404FAD6
:103C90000CFCACF1010C0CEA0101994004FA03F3AD
:103CA0005B1E1A401143002806DB00F1E0200901E9
:103CB00080F8001410BC704700F00F0000F1E02005
:103CC000090180F8141D10BC704700000CED00E0E5
:103CD00000F00700064A11684FF6FF03194041EA59
:103CE000002040F0FD7040F08060106070470000E0
:103CF0000CED00E02DE9F84304464FF00108207870
:103D00004FF0000710F0050F33D0DFF84491C9F8E9
:103D10006870FFF7D3FB06464E4D286810F0006F21
:103D20000BD0FFF7CBFB801B022802D90320BDE894
:103D3000F883286810F0006FF3D16068217A800161
:103D400040EA017044490860C9F86880FFF7B6FB93
:103D50000646286810F0006F0BD1FFF7AFFB801B01
:103D6000022802D90320BDE8F883286810F0006F0C
:103D7000F3D0207810F0020F5CD03848016841F091
:103D800080510160006800F080500090344D286838
:103D900040F480702860FFF791FB0646286810F415
:103DA000807F0BD1FFF78AFB801B022802D90320FA
:103DB000BDE8F883286810F4807FF3D0294D286887
:103DC00000F4407028B3A18901F44071814220D0F1
:103DD000286820F440702449C1F800800F602860F2
:103DE000286810F0010F14D0FFF768FB064628681A
:103DF00010F0020F0DD141F28837FFF75FFB801BF7
:103E0000B84202D90320BDE8F883286810F0020FF9
:103E1000F3D0E0684FF4407131EA000213490CD04E
:103E2000086820F4F81008602868A189C1F30B0124
:103E3000084328600020BDE8F8830A6820F4407039
:103E400022F4F81220F0704010430860ECE7000004
:103E500000004742003802408438024040380240A7
:103E60000070004070380240400E4742083802405F
:103E70002DE9F04704460D46002C13D0DFF854918D
:103E8000D9F80000EFB200F00700A8420DD289F87F
:103E90000070D9F8000000F00700A84205D001200A
:103EA000BDE8F0870120BDE8F08720684A4E10F099
:103EB000020F14D010F0040F03D0306840F4E0502B
:103EC0003060207810F0080F03D0306840F4604074
:103ED00030603068A16820F0F0000843306020783E
:103EE00010F0010F3ED060683C49012808D002283C
:103EF0000DD003280BD0096811F0020F28D00AE07A
:103F0000096811F4003F06D10120BDE8F087096877
:103F100011F0007F19D0316821F0030108433060AF
:103F2000FFF7CCFA80463068616800F00C00B0EB17
:103F3000810F17D041F2883AFFF7C0FAA0EB0800D2
:103F4000504508D90320BDE8F0870120BDE8F0877F
:103F50000120BDE8F0873068616800F00C00B0EB2C
:103F6000810FE9D1D9F8000000F00700A8420AD972
:103F700089F80070D9F8000000F00700A84202D0CC
:103F80000120BDE8F087207810F0040F05D03068DC
:103F9000E16820F4E05008433060207810F0080F0A
:103FA00006D03068216920F4604040EAC1003060EA
:103FB00000F042F831680A4AC1F30311515CC8406D
:103FC0000849086008480068FFF7F4FD0020BDE8D4
:103FD000F0870000003C02400838024000380240F0
:103FE000D02A0108B4040020F0060020014800682F
:103FF00070470000B404002000B5FFF7F7FF044944
:104000000968044AC1F38221515CC84000BD000028
:1040100008380240E02A010800B5FFF7E7FF04492D
:104020000968044AC1F34231515CC84000BD000038
:1040300008380240E02A010810B51748006810F05F
:104040000C01164816D0164B042912D0082911D19C
:10405000144C216801F03F02216811F4800F0AD04E
:104060002068C0F38810A0FB03010023FCF794FA3A
:1040700009E0184610BD21680023C1F38811A1FB97
:104080000001FCF789FA2168C1F30141491C49008C
:10409000B0FBF1F010BD0000083802400024F4002D
:1040A000001BB700043802402DE9F84F0446002CED
:1040B00012D02078FB4E10F0010FA6F1040563D05A
:1040C000301D016801F00C0104290CD0006800F0DB
:1040D0000C00082803D010E00120BDE8F88F3068FC
:1040E00010F4800F09D0286810F4003F4CD06068AD
:1040F000002849D10120BDE8F88F6068B0F5803F05
:1041000014D0B0F5A02F16D0286820F48030286095
:10411000286820F480202860606810B3FFF7CEF98B
:104120000746286810F4003F0ED02DE0286840F4C0
:1041300080302860F0E7286840F4802028602868F4
:1041400040F480302860E7E7FFF7B8F9C01B642827
:1041500002D90320BDE8F88F286810F4003FF3D09F
:1041600012E0FFF7ABF90746286810F4003F0BD0C8
:10417000FFF7A4F9C01B642802D90320BDE8F88F1B
:10418000286810F4003FF3D12078C74F10F0020FD9
:104190004FF0000957D0C548016811F00C0F14D03A
:1041A000006800F00C00082803D1306810F4800F7C
:1041B0000BD0E06880B301203860FFF77FF98046BC
:1041C000286810F0020F12D01EE0286810F0020FCD
:1041D00005D0E068012802D00120BDE8F88F2868EA
:1041E000216920F0F80040EAC10028602BE0FFF7C9
:1041F00065F9A0EB0800022802D90320BDE8F88F7A
:10420000286810F0020FF2D02868216920F0F80029
:1042100040EAC100286016E0FFE7C7F80090FFF70A
:104220004DF98046286810F0020F0CD0FFF746F9D0
:10423000A0EB0800022802D90320BDE8F88F286807
:1042400010F0020FF2D1207810F0080F35D0984806
:10425000DFF860A26169C1B101210160FFF72EF9A9
:104260008046DAF8000010F0020F26D1FFF726F999
:10427000A0EB0800022802D90320BDE8F88FDAF885
:10428000000010F0020FF1D017E0C0F80090FFF727
:1042900015F98046DAF8000010F0020F0DD0FFF794
:1042A0000DF9A0EB0800022802D90320BDE8F88F21
:1042B000DAF8000010F0020FF1D1207810F0040FAE
:1042C00071D04FF000087C48006810F0805F0AD180
:1042D0007948016841F080510160006800F0805029
:1042E00000904FF00108DFF8D4B1DBF8000010F4C3
:1042F000807F1BD1DBF8000040F48070CBF8000019
:10430000FFF7DCF88246DBF8000010F4807F0DD167
:10431000FFF7D4F8A0EB0A00022802D90320BDE879
:10432000F88FDBF8000010F4807FF1D0A068DFF890
:1043300090B1012818D005281DD0DBF8000020F02E
:104340000100CBF80000DBF8000020F00400CBF8FF
:104350000000A06840B3FFF7B1F88246DBF8000028
:1043600010F0020F14D03EE0DBF8000040F0010036
:10437000CBF80000EDE7DBF8000040F00400CBF8DC
:104380000000DBF8000040F00100CBF80000E0E79F
:10439000FFF794F8A0EB0A0141F28830814204D97A
:1043A0000320BDE8F88F26E005E0DBF8000010F000
:1043B000020FEDD017E0FFF781F88246DBF800002E
:1043C00010F0020F0FD0FFF779F8A0EB0A0141F2CD
:1043D0008830814202D90320BDE8F88FDBF8000065
:1043E00010F0020FEFD1B8F1010F04D1324801688B
:1043F00021F080510160A069F0B32C4909684FF0A9
:10440000FF3801F00C01082966D0022810D0C7F847
:104410006090FFF753F80446286810F0007F2BD017
:10442000FFF74CF8001B022851D90320BDE8F88F94
:10443000C7F86090FFF742F88146286810F0007FC7
:104440000CD0FFF73BF8A0EB0900022802D90320AB
:10445000BDE8F88F286810F0007FF2D1216AE0698A
:10446000A26A0843616A08EB5202890141EA0241EB
:10447000084394F82C1000E055E040EA01603060F9
:1044800001203866FFF71AF80446286810F0007F0C
:1044900049D1FFF713F8001B022813D90320BDE808
:1044A000F88F0000043802400000474208380240FC
:1044B000800E47427438024040380240007000408D
:1044C00070380240286810F0007FE2D02BE02868A6
:1044D00010F0007FA4D126E0012822D03068E269E4
:1044E00000F4800191421AD1226A00F03F0191420A
:1044F00015D147F6C071626A0140B1EB821F0ED13F
:10450000A26A00F4403108EB5202B1EB024F06D12F
:1045100094F82C1000F07060B0EB016F03D0012014
:10452000BDE70120BBE70020B9E770B50446002CC9
:1045300002D0607F10B106E0012070BD002020771E
:10454000204600F04FF8022060772168CA204862B8
:10455000216853204862204602F084FDFF2504268E
:1045600020B1206845626677012070BD20688168AF
:1045700021F0400121F4E0018160206881686268D7
:104580006369114322691A43114381602168E0681D
:10459000086120680169228941EA024101612068BD
:1045A000C16821F08001C1602068806810F0200F90
:1045B00008D1204600F036F820B1206845626677C1
:1045C000012070BD2068016C21F480210164206805
:1045D000016CA26911430164206845620120607783
:1045E000002070BD1FB5044600200090019002908D
:1045F00003900949206888420CD1022000900748A6
:1046000003906846FFF776FB08B1FDF703FC012035
:10461000034908601FBD00000028004000031E0081
:104620003C0E474270B504462068C16821F0A001E5
:10463000C160FEF743FF05462068C06810F0200FF8
:104640000CD1FEF73BFF401BB0F57A7F01D9032068
:1046500070BD2068C06810F0200FF2D0002070BD3F
:1046600070B50446002C09D0606A002540B1256170
:104670006561A56294F8510040B10CE0012070BD65
:104680006068B0F5827FF4D0E561F2E784F85050BD
:10469000204600F045F8022084F8510020680168A7
:1046A00021F040010160A088218900F4827001F4AA
:1046B00004410843A18901F400610843217C01F011
:1046C00002010843217D01F001010843218B01F41F
:1046D00000710843217F01F03801084394F820104D
:1046E00001F080010843218D01F400510843216845
:1046F0000860A169042000EA114094F8241001F038
:1047000010010143206841602068C16921F4006103
:10471000C1616565012084F85100002070BD000072
:1047200010B586B00446142101A8FCF76CF8504976
:10473000206888427ED100BF002000904D4800686C
:1047400040F480504B4908600846006800F48050EF
:10475000009000BF00BF00BF002000904548143803
:10476000006840F0020043491439086008460068B8
:1047700000F00200009000BF00BF00BF00200090CA
:104780000846006840F0010008600846006800F034
:104790000100009000BF00BF18200190022002908D
:1047A00001200390032004900520059001A93248C0
:1047B000FEF764FD8020019002200290012003900A
:1047C000032004900520059001A92C48FEF756FD12
:1047D0002B482C4908604FF0C060486000212948F0
:1047E0008160C1604FF4806101610021416181619C
:1047F000C1614FF4003101620421416203218162F1
:104800000021C1620163FEF723FC08B1FDF702FB42
:1048100000BF1C48E064846300BF194818301A497F
:1048200008604FF0C0604860402117488160002157
:10483000C16000E01AE04FF4806101610021416134
:104840008161C1614FF48031016204214162032121
:1048500081620021C1620163FEF7FAFB08B1FDF736
:10486000D9FA00BF0848A064846300BF06B010BD39
:104870000030014044380240000402400000024081
:1048800040640240480F0020A80F00202DE9F84F97
:1048900004460A9E8A4693461F4601254FF00008AB
:1048A00094F8500001280ED0012084F85000FEF743
:1048B00005FE814694F85100616801280ED0B1F5DB
:1048C000827F07D102E00220BDE8F88FA16809B914
:1048D000042803D04FF0020800F0CBB8BAF1000F63
:1048E0001DD0BBF1000F1AD0380018D094F8510039
:1048F000042802D0052084F8510000206065C4F827
:1049000038B0E787A787C4F830A0E786A786206479
:1049100060642068016811F0400F03D006E04FF09A
:104920000108A6E0016841F040010160E068B0F5CF
:10493000006F05D06068002848D0012F46D07EE087
:10494000606808B1012F3AD1206B21680088C860E7
:10495000206B801C2063E08E401EE0862FE02068E4
:10496000816811F0020F0DD0E18E59B1012D09D1EE
:10497000216B0988C160206B801C2063E08E401E83
:10498000E08600252068816811F0010F0BD0E18FCF
:1049900049B1C068A16B0880A06B801CA063E08F48
:1049A000401EE0870125FEF789FDA0EB0900B0421B
:1049B00005D3B6F1FF3F02D04FF0030859E0E08E77
:1049C0000028CCD1E08F0028C9D13EE0206B2168BF
:1049D00000780873206B401C2063E08E401EE08648
:1049E0002DE02068816811F0020F0DD0E18E59B1E1
:1049F000012D09D1216B09780173206B401C2063C4
:104A0000E08E401EE08600252068816811F0010FCD
:104A10000BD0E18F49B1C068A16B0870A06B401C3E
:104A2000A063E08F401EE0870125FEF747FDA0EB65
:104A30000900B04202D3B6F1FF3F11D186B1E08E3A
:104A40000028CED1E08F0028CBD14A4631462046FF
:104A500004F088FF38B14FF001082020606508E0BD
:104A60004FF0030805E0A06818B92068C1688068A5
:104A70000090012084F85100002084F85000404646
:104A8000BDE8F88F401EB0F1807F01D30120704750
:104A90004FF0E0214861044AF02010700020886146
:104AA000072008610020704723ED00E030B490F843
:104AB0003C20012A44D0012480F83C40022280F8A6
:104AC0003D200268D2F804C093682CF0700C0D6889
:104AD00045EA0C0CC2F804C00268A2F1804CBCF597
:104AE000803C20D0B2F1804F1DD0A2F1804CBCF5AB
:104AF000806C18D0A2F1804CBCF5006C13D0A2F1F0
:104B0000804CBCF5406C0ED0A2F1804CBCF5823CD0
:104B100009D0A2F1804CBCF5A03C04D0A2F1804C9D
:104B2000BCF5C05C04D123F080034968194391604F
:104B300080F83D40002180F83C1030BC00207047D8
:104B400030BC0220704710B50446002C03D094F806
:104B50003D0010B107E0012010BD002084F83C00AA
:104B6000204600F01FF8022084F83D00211D206837
:104B700005F02CF8012084F8460084F83E0084F803
:104B80003F0084F8400084F8410084F8420084F833
:104B9000430084F8440084F8450084F83D00002078
:104BA00010BD000008B51F4A016891420FD100BF37
:104BB000002100911C49096841F004011A4A116062
:104BC0001146096801F00401009100BF29E0174A6D
:104BD000016891420FD100BF00210091124909687C
:104BE00041F00801104A11601146096801F00801FE
:104BF000009100BF15E00E4A0168914211D100BF3B
:104C0000002100910849091D096841F40031064A54
:104C1000121D11601146096801F40031009100BFB6
:104C200000BF08BD0008004040380240000C0040B2
:104C30000044014090F83D10012901D00120704747
:104C4000022180F83D100068A0F18041B1F580316B
:104C500026D0B0F1804F23D0A0F18041B1F5806122
:104C60001ED0A0F18041B1F5006119D0A0F18041C2
:104C7000B1F5406114D0A0F18041B1F582310FD07F
:104C8000A0F18041B1F5A0310AD0A0F18041B1F589
:104C9000C05105D0016841F001010160002070475A
:104CA000816801F007010629F8D0016841F001018F
:104CB0000160F3E770B50446002594F83C00012834
:104CC00018D0012684F83C60022084F83D0020685A
:104CD000826822F0770222F47F42826008685028BE
:104CE00039D00EDC202854D006DC002851D0102802
:104CF00011D14EE0022070BD30284AD040280AD1A0
:104D00003DE0602831D070280DD0B0F5805F03D031
:104D1000B0F5005F13D0012584F83D60002084F8D1
:104D20003C00284670BDCB684A688968206804F05A
:104D3000C2FF2068816841F077018160ECE7CB68B1
:104D40004A688968206804F0B6FF2068816841F4E9
:104D500080418160E0E7CA684968206805F09AF8F8
:104D60005021206804F0B2FFD6E7CA68496820687D
:104D700005F0A3F86021206804F0A8FFCCE7CA681A
:104D80004968206805F086F84021206804F09EFFFD
:104D9000C2E722680146104604F098FFBCE7000015
:104DA00010B586B00446142101A8FBF72CFD434939
:104DB0002068884225D100BF00200090404800684C
:104DC00040F008003E4908600846006800F008000E
:104DD000009000BF00BF4FF480400190022002907D
:104DE0000120039002200490059001A93548FEF7A8
:104DF00045FA3548FFF71EFF0821334800F00EF949
:104E00005AE03249206888422DD100BF002000902E
:104E10002B48006840F08000294908600846006877
:104E200000F08000009000BF00BF4FF4E050019000
:104E3000022002900120039002200490059001A915
:104E40002348FEF71BFA2348FFF7F4FE0021214810
:104E500000F0E4F804211F4800F0E0F808211D48A4
:104E600000F0DCF828E01C492068884224D100BF0B
:104E7000002000901248006840F0200010490860AF
:104E80000846006800F02000009000BF00BF4020EE
:104E90000190022002900120039002200490032040
:104EA000059001A90D48FEF7E9F90D48FFF7C2FE8C
:104EB00000210B4800F0B2F806B010BD0008004019
:104EC00030380240000C024008100020000C004066
:104ED000001C024050100020004401400014024019
:104EE0009810002070B504460D46002694F83C004A
:104EF00001280FD0012084F83C006AB1042A1FD099
:104F0000082A32D00C2A44D00126002084F83C0024
:104F1000304670BD022070BD2946206804F0DEFED8
:104F20002068816941F0080181612068816921F070
:104F300004018161206881692A6911438161E4E784
:104F40002946206804F002FF2068816941F400616D
:104F500081612068816921F48061816120688169B3
:104F60002A6941EA02218161CFE72946206804F0DD
:104F700029FF2068C16941F00801C1612068C16949
:104F800021F00401C1612068C1692A691143C1612E
:104F9000BBE72946206804F051FF2068C16941F44D
:104FA0000061C1612068C16921F48061C16120682C
:104FB000C1692A6941EA0221C161A6E710B5044628
:104FC000002C03D094F83D0010B107E0012010BD83
:104FD000002084F83C00204600F01EF8022084F8EF
:104FE0003D00211D206804F0F1FD012084F84600F9
:104FF00084F83E0084F83F0084F8400084F84100C3
:1050000084F8420084F8430084F8440084F84500A2
:1050100084F83D00002010BD7047000010B5044624
:10502000002909D004290AD008290BD094F841009E
:1050300001280AD0012010BD94F83E00F8E794F84A
:105040003F00F5E794F84000F2E70220D9B30429C5
:1050500047D0082948D084F841000122206804F094
:105060001BFE234A20682349904201D0884203D185
:10507000436C43F4004343642068904224D0B0F171
:10508000804F21D0A0F18042B2F580621CD0A0F107
:105090008042B2F5006217D0A0F18042B2F54062C2
:1050A00012D0884210D0A0F18041B1F5A0310BD0D0
:1050B000A0F18041B1F5C05106D0016841F0010175
:1050C0000160002010BD09E0816801F00701062998
:1050D000F7D0016841F001010160F2E784F83E0079
:1050E000BBE784F83F00B8E784F84000B5E700006C
:1050F000000001400004014038B5044694F83E0029
:10510000202801D0022038BD71B16AB194F83C006A
:1051100001280BD0012084F83C002063204605F0D4
:105120007FF8034623B107E0012038BD022038BDD7
:10513000206B012802D00123184638BD2068016881
:105140004068009020680C3050E8001F41F01001CA
:1051500040E80012002AF5D1EEE7000070B50546E0
:105160000C461149286888421CD1104800884EF628
:10517000AB71884211D1601E0C49085C55280CD1D6
:10518000142C0AD11122891C0948FBF79BFA012033
:1051900008490870082007F07DF8502203490648A6
:1051A000FFF7AAFF70BD0000001401401423002087
:1051B000B42300209D0600206811002070470000E5
:1051C000F8B5044622681068D168536900F00F0CE6
:1051D000BCF1000F0AD110F0200F07D011F0200F02
:1051E00004D02046BDE8F84004F037BF0025BCF1EC
:1051F000000F75D003F0010C01F490765CEA06060E
:105200006ED010F0010F06D011F4807F03D0226C15
:1052100042F00102226410F0040F06D013F0010FD7
:1052200003D0226C42F00202226410F0020F06D07A
:1052300013F0010F03D0226C42F00402226410F03C
:10524000080F08D001F0200252EA0C0203D0226CB1
:1052500042F008022264226C002A35D010F0200FA0
:1052600005D011F0200F02D0204604F0F6FE206891
:105270004069C0F38010216C11F0080F00D148B3D1
:10528000204604F0A8FE2068406910F0400F1CD0B2
:105290002068143050E8001F21F0400140E800125F
:1052A000002AF5D1A06B60B15C490165A06BFDF7E8
:1052B000C6FD002808D0A06B016D01B0BDE8F0402C
:1052C00008472046FFF77AFFF8BD2046FFF776FF34
:1052D000F8BD05E0FFE72046FFF770FF2564F8BD45
:1052E000236B012B7ED110F0100F7BD011F0100F2B
:1052F0007ED010685068009050694FF0200310F085
:10530000400F43D0A16B0868406880B20028E6D007
:10531000A28D8242E3D9E085C869B0F5807F2DD0A7
:1053200020680C3050E8001F21F4807140E8001222
:10533000002AF5D12068143050E8001F21F0010147
:1053400040E80012002AF5D12068143050E8001F10
:1053500021F0400140E80012002AF5D184F83E30E7
:10536000256320680C3050E8001F21F0100140E850
:105370000012002AF5D1A06BFDF710FDA08DE18D84
:10538000401A81B22046FFF7E9FEF8BDA08DE18DFD
:10539000401A81B2E08D0028F7D00029F5D02068AE
:1053A0000C3050E8002F22F4907240E8002CBCF141
:1053B000000FF4D12068143050E8002F22F00102D1
:1053C00040E8002CBCF1000FF4D184F83E30256396
:1053D00020680C3050E8002F22F0100240E8002333
:1053E000002B00E004E0F3D12046FFF7B7FEF8BD44
:1053F00010F0800F07D011F0800F04D02046BDE8D8
:10540000F84004F057BF10F0400FF0D011F0400FFB
:10541000EDD02046BDE8F84004F004BEDF9E000851
:1054200070B50446002C04D094F83D00002510B15E
:1054300006E0012070BD84F83C50204600F022F8C0
:10544000242084F83D002068C16821F40051C16027
:10545000204604F067FE2068016921F49041016153
:105460002068416921F02A0141612068C16841F446
:105470000051C1602564202084F83D0084F83E007E
:10548000002070BD10B586B00446142101A8FBF7BA
:10549000BAF9B549206888427DD100BF002000904C
:1054A000B248006840F01000B04908600846006843
:1054B00000F01000009000BF00BF00BF002000906F
:1054C000AA481438006840F00200A849143908605E
:1054D0000846006800F00200009000BF00BF00BF57
:1054E000002000900846006840F00100086008466F
:1054F000006800F00100009000BF00BF8020019014
:1055000002200290002003900320049007200590C1
:1055100001A99748FDF7B2FE4FF4007001900220F8
:10552000029000200390032004900720059001A919
:105530009048FDF7A3FE9048904908604FF0006046
:10554000486040218D4881600021C1604FF4806136
:105550000161002141618161C1614FF480310162CB
:1055600004214162032181620021C1620163FDF7D0
:105570006FFD08B1FCF74EFC00BF80486063846398
:1055800000BF002205212520FEF76EFB2520FEF737
:105590005DFBE7E0FFE77A49206888425BD100BF06
:1055A000002000907148001F006840F480206F497F
:1055B000091F08600846006800F48020009000BFC2
:1055C00000BF00BF0020009068481438006840F019
:1055D00004006649143908600846006800F00400B9
:1055E000009000BF00BF4FF4406001900220029085
:1055F00000200390032004900720059001A9614832
:10560000FDF73CFE6048614908604FF0006048606B
:1056100000215E488160C1604FF48061016100211A
:1056200041618161C1614FF4003101620021416239
:10563000FDF70EFD08B1FCF7EDFB00BF5348A0637A
:10564000846300BF002204212720FEF70DFB2720E2
:10565000FEF7FCFA86E04E492068884299D100BFE7
:10566000002000904148006840F020003F49086059
:105670000846006800F02000009000BF00BF00BF97
:105680000020009039481438006840F04000374945
:10569000143908600846006800F04000009000BF20
:1056A00000BF4FF48440019002200290002003903C
:1056B000032004900820059001A93648FDF7DEFD7F
:1056C0002D489038344908608005486000213248F0
:1056D0008160C1604FF4806101610021416181619D
:1056E000C1614FF4403101620421416203218162B2
:1056F0000021C1620163FDF7ABFC08B1FCF78AFB36
:1057000000BF2548A063846300BF1B4818382349A5
:1057100008604FF0206048604021204881600021EF
:10572000C1604FF480610161002141618161C1610B
:10573000016204214162032181620021C16201638F
:10574000FDF786FC08B1FCF765FB00BF13486063FA
:10575000846300BF002205214720FEF785FA472019
:10576000FEF774FA06B010BD001001404438024044
:105770000004024000000240B8640240AC11002066
:105780000048004000080240286002400C1200203F
:1057900000140140001802406C120020CC120020BE
:1057A00070477047704700BFFEE701684A6912F40E
:1057B000806F11D06FF480624A6100210163202262
:1057C00080F83D2080F83E10026C42F00402026432
:1057D00080F83C1001207047002070472DE9F84FF9
:1057E0000446DDF828A00B9D0F4690461E46206813
:1057F000016841F4806101602068016841F48071B2
:105800000160534600224FF001112046009500F040
:1058100025F94FF4007948B12068006810F4807FC2
:1058200001D0C4F840900320BDE8F88F216807F04C
:10583000FE000861DFF8F4B02B4652465946204678
:1058400000F066F910B10120BDE8F88F20684169C9
:10585000806900902A465146204600F0FEF950B17A
:10586000206C042804D12068016841F400710160B3
:105870000120BDE8F88F304608F0FF0601280DD062
:1058800021684FEA182008612A465146204600F058
:10589000E4F970B1206C042803D007E020680661A9
:1058A00009E02068016841F4007101600120BDE851
:1058B000F88F206806612A465146204600F0CDF94F
:1058C00050B1206C042804D12068016841F40071B3
:1058D00001600120BDE8F88F2068016841F4807103
:1058E0000160534600224FF001112046009500F060
:1058F000B5F848B12068006810F4807F01D0C4F882
:1059000040900320BDE8F88F2168F8B240F0010014
:1059100008612B4652465946204600F0F9F810B16E
:105920000120BDE8F88F0020BDE8F88F02000100DB
:105930002DE9F8430446DDF82090099F0D461646F0
:1059400098462068016841F4807101604B4600224E
:105950004FF001112046009700F080F850B1206808
:10596000006810F4807F02D04FF4007020640320A0
:10597000BDE8F883216805F0FE0008613B464A4611
:105980001E49204600F0C4F810B10120BDE8F8839C
:1059900020684169806900903A464946204600F0F7
:1059A0005CF950B1206C042804D12068016841F4EE
:1059B000007101600120BDE8F883F5B2B8F1010F74
:1059C0000CD02168300A08613A464946204600F06A
:1059D00044F970B1206C042803D007E02068056109
:1059E00009E02068016841F4007101600120BDE810
:1059F000F883206805610020BDE8F88302000100FB
:105A000070B504460D4616462068406910F0040F34
:105A100013D12046FFF7C9FE08B1012070BDB5F1D2
:105A2000FF3F05D0FDF74AFD801BA84207D835B1DE
:105A30002068406910F0040FEBD0002070BD0020FA
:105A40002063202184F83D1084F83E00216C41F051
:105A50002001216484F83C00012070BD2DE9F0474D
:105A60000446DDF820900D4617461E46C5F307484C
:105A70002068B8F1010F22D0806925EA00000004F7
:105A8000000C26D00020B84216D1B6F1FF3F06D058
:105A9000FDF714FDA0EB0900B0421CD8DEB1B8F14F
:105AA000010F28D02068806925EA00000004000C5E
:105AB0002CD00020B842E8D00020BDE8F087406933
:105AC00025EA00000004000C01D00020DBE70120E3
:105AD000D9E70120D7E700202063202184F83D107A
